:020000040800F2
:1000000080B500AF0C4B1B6801330B4A13600B4BE0
:100010001B8801339AB2094B1A80094B1B780133B4
:10002000DAB2074B1A70074B1B680133054A13609D
:1000300000F00AF800BF80BD00000020040000208E
:10004000100000201400002080B400AF0C4B1B688F
:1000500001330B4A13600B4B1B8801339AB2094BD7
:100060001A80094B1B780133DAB2074B1A70074B21
:100070001B680133054A136000BFBD4680BC704752
:10008000080000200C000020180000201C000020A8
:0400900044332211C2
:10009400210000002C000000210000002C000000C2
:0400000508000000EF
:00000001FF
