:020000040800F2
:100000000000002049010008E1010008E1010008AA
:10001000E1010008E1010008E10100080000000022
:10002000000000000000000000000000E1010008E6
:10003000E101000800000000E1010008E101000802
:10004000E1010008E1010008E1010008E101000808
:10005000E1010008E1010008E1010008E1010008F8
:10006000E1010008E1010008E1010008E1010008E8
:10007000E1010008E1010008E1010008E1010008D8
:10008000E1010008E1010008E1010008E1010008C8
:10009000E1010008E1010008E1010008E1010008B8
:1000A000E1010008E1010008E1010008E1010008A8
:1000B000E1010008E1010008E1010008E101000898
:1000C000E1010008E1010008E1010008E101000888
:1000D000E1010008E1010008E1010008E101000878
:1000E000E1010008E1010008E1010008E101000868
:1000F000E1010008E1010008E1010008E101000858
:10010000E1010008E1010008E1010008E101000847
:10011000E1010008E1010008E1010008E101000837
:10012000E1010008E1010008E1010008E101000827
:04013000E1010008E1
:1001340080B400AFFEE7000080B400AF00BFBD464E
:1001440080BC704780B586B000AF00237B6000237D
:100154007B6100233B611C4A1C4BD31A9B107B60C0
:100164001B4B7B61194B3B610023FB600AE07A69FE
:10017400131D7B613B69191D396112681A60FB68A4
:100184000133FB60FA687B689A42F0D3114A124B40
:10019400D31A9B107B60104B3B610023BB6007E0CC
:1001A4003B691A1D3A6100221A60BB680133BB60C7
:1001B400BA687B689A42F3D3FFF7BEFFFFF7B8FF34
:1001C40000BF1837BD4680BD040000200000002099
:1001D400EC010008040000200400002080B400AFFB
:0801E40000BFBD4680BC70475E
:0401EC00005000209F
:0400000508000134BA
:00000001FF
