:020000040800F2
:1000000000500020D504000825050008250500083B
:10001000250500082505000825050008000000004A
:10002000000000000000000000000000250500089E
:10003000250500080000000025050008250500082A
:1000400025050008250500082505000825050008E8
:1000500025050008250500082505000825050008D8
:1000600025050008250500082505000825050008C8
:1000700025050008250500082505000825050008B8
:1000800025050008250500082505000825050008A8
:100090002505000825050008250500082505000898
:1000A0002505000825050008250500082505000888
:1000B0002505000825050008250500082505000878
:1000C0002505000825050008250500082505000868
:1000D0002505000825050008250500082505000858
:1000E000250500082505000800000000250500087A
:1000F0002505000825050008250500082505000838
:100100002505000825050008250500082505000827
:100110002505000825050008250500082505000817
:100120002505000825050008250500082505000807
:1001300010B5054C237833B9044B13B10448AFF321
:1001400000800123237010BD00000020000000008B
:100150007005000808B5034B1BB103490348AFF312
:10016000008008BD000000000400002070050008A9
:1001700080B483B000AF78600B46FB707B681B785F
:10018000DBB25AB2FB78012101FA03F35BB21343ED
:100190005BB2DAB27B681A7000BF0C37BD4680BC18
:1001A0007047000080B584B000AFF860B9601346B6
:1001B000FB71FB68BA681A60FB68FA791A71FB6810
:1001C0001B68194A934225D0174A934226D8174AEA
:1001D00093421BD0154A934220D8154A934211D01E
:1001E000134A93421AD8134A934203D0124A9342B5
:1001F00004D013E0022000F01BF90FE0032000F010
:1002000017F90BE0042000F013F907E0052000F0D7
:100210000FF903E0062000F00BF900BFFB68184659
:100220001037BD4680BD00BF0018014000140140DA
:100230000010014000080140000C014080B487B06C
:1002400000AF7860084611461A460346FB700B461D
:10025000BB7013467B707B681B687B61FB78032B4C
:1002600017D801A252F823F093020008790200087F
:1002700093020008930200087B6923F008037B6166
:10028000BB78002B03D0BB78012B01D100E000BF6D
:1002900000BF7B6904333B613B691B687A68127954
:1002A000114601228A40D2431A403B691A603B69D9
:1002B0001A68BB78796809798B401A433B691A60E0
:1002C0007B690833FB60FB681B687A68127952000F
:1002D000032101FA02F2D2431A40FB681A60FB685C
:1002E0001A6879787B681B795B0001FA03F31A437B
:1002F000FB681A607B690C33BB60BB681B687A685B
:1003000012795200032101FA02F2D2431A40BB686B
:100310001A60BB681A6897F820107B681B795B002D
:1003200001FA03F31A43BB681A6000BF1C37BD46CD
:1003300080BC704780B483B000AF78607B681B6876
:10034000144A93421DD0134A93421CD8124A934236
:1003500015D0114A934216D8104A93420DD00F4A35
:10036000934210D80E4A934203D00E4A934202D0D1
:1003700009E00B4B08E00B4B06E0084B04E0064B92
:1003800002E0044B00E0002318460C37BD4680BC59
:10039000704700BF001801400014014000100140E8
:1003A00000080140000C014090B583B000AF7860B8
:1003B0007B681B791A46012303FA02F47868FFF779
:1003C000B9FF03461833E2B21A7000BF0C37BD46BE
:1003D00090BD90B583B000AF78607B681B79103317
:1003E000012202FA03F47868FFF7A4FF03461833EA
:1003F000E2B21A7000BF0C37BD4690BD80B485B024
:1004000000AF78607B681B681033FB60FB681B687B
:100410007A681279D34003F00103002B14BF012343
:100420000023DBB218461437BD4680BC704700007D
:1004300080B582B000AF0346FB71FB7919460348D3
:10044000FFF796FE00BF0837BD4680BD181002407A
:1004500080B586B002AF07F1080300221B49184699
:10046000FFF7A0FE3B46002219491846FFF79AFE07
:1004700007F1080001230093032300220121FFF765
:10048000DDFE384601230093032301220021FFF7FC
:10049000D5FE07F108031846FFF786FF3B461846CE
:1004A000FFF7ACFF0346012B0CBF01230023DBB297
:1004B000002B05D007F108031846FFF775FFEDE79D
:1004C00007F108031846FFF784FFE7E7000801403B
:1004D000000C01400D488546AFF300800C480D49E3
:1004E0000D4A002302E0D458C4500433C4188C428F
:1004F000F9D30A4A0A4C002301E013600432A242F5
:10050000FBD300F011F8FFF7A3FFFEE70050002037
:1005100000000020000000209005000800000020DE
:100520001C000020FEE7000070B500260C4D0D4CAD
:10053000641BA410A64209D100F01AF800260A4D47
:100540000A4C641BA410A64205D170BD55F8043BAB
:1005500098470136EEE755F8043B98470136F2E735
:100560008805000888050008880500088C05000833
:10057000F8B500BFF8BC08BC9E467047F8B500BF90
:08058000F8BC08BC9E46704760
:040588005501000811
:04058C003101000831
:04000005080004D516
:00000001FF
